:020000040000FA
:060000000A128A110E280D
:10000800FE00030EF8000408F9000A08FA000A12B4
:100018008A110F2C0A128A111128FB01FC01FD011B
:1000280083120313B001B101B201B301B401B501E8
:10003800B601B701B801B90183010A128A1124284F
:100048008316031388018312031388010A128A1185
:1000580061210A128A117F3083120313AF00D43052
:10006800AE003130AD00AD0B3728AE0B3728AF0BE3
:1000780037280A128A111D240A128A1183120313BF
:10008800A401A40A01300A128A115E220A128A11F6
:10009800013083120313A6008030A7000A128A11C8
:1000A80010230A128A111A3083120313AF005E302C
:1000B800AE006D30AD00AD0B5F28AE0B5F28AF0B07
:1000C8005F28662883120313A401A40A02300A12C7
:1000D8008A115E220A128A111C3083120313A600A9
:1000E8008030A7000A128A1110230A128A11CB3015
:1000F80083120313AF00EC30AE008330AD00AD0BBC
:100108008328AE0B8328AF0B83288A280A128A110A
:100118001D240A128A11831203130815A401A40AC4
:1001280001300A128A115E220A128A110F308312D4
:100138000313A6008030A7000A128A1110230A129E
:100148008A1183120313A401A40A02300A128A1125
:100158005E220A128A11993083120313AF003130DC
:10016800AE00A130AD00AD0BB728AE0BB728AF0B72
:10017800B728BE280A128A111D240A128A1183126E
:1001880003130811A401A40A01300A128A115E227D
:100198000A128A11273083120313A6008030A700A1
:1001A8000A128A1110230A128A1183120313A40156
:1001B800A40A02300A128A115E220A128A117F30BA
:1001C80083120313AF00D430AE003130AD00AD0B55
:1001D800EB28AE0BEB28AF0BEB280A128A111D2473
:1001E8000A128A11831203130815A401A40A013004
:1001F8000A128A115E220A128A110F30831203131F
:10020800A6008030A7000A128A1110230A128A1148
:1002180083120313A401A40A02300A128A115E226F
:100228000A128A11B23083120313AF008F30AE0066
:100238001230AD00AD0B1E29AE0B1E29AF0B1E29C7
:1002480000000A128A111D240A128A11831203134C
:100258000811A401A40A01300A128A115E220A12A6
:100268008A11273083120313A6008030A7000A12D0
:100278008A1110230A128A1183120313A401A40AF3
:1002880002300A128A115E220A128A117F30831202
:100298000313AF00D430AE003130AD00AD0B52299E
:1002A800AE0B5229AF0B52290A128A111D240A12C9
:1002B8008A118A280A128A110E28831603138801C4
:1002C8008810081003300A128A11F3230A128A11BF
:1002D800213083120313A5007530A400A40B7229E2
:1002E800A50B7229772903300A128A11F3230A12FF
:1002F8008A11A53083120313A400A40B8129842931
:1003080003300A128A11F3230A128A11A5308312C4
:100318000313A400A40B8E29912902300A128A1112
:10032800F3230A128A11A53083120313A400A40B25
:100338009B299E2902300A128A11F3230A128A1174
:1003480008300A128A11F3230A128A1157308312CD
:100358000313A400A40BAE29000000300A128A116E
:10036800F3230A128A1108300A128A11F3230A1297
:100378008A11573083120313A400A40BC12900006B
:1003880000300A128A11F3230A128A1101300A1264
:100398008A11F3230A128A11143083120313A50059
:1003A8007930A400A40BD629A50BD62900300A124F
:1003B8008A11F3230A128A1106300A128A11F323CA
:1003C8000A128A11573083120313A400A40BEA29D6
:1003D800000000300A128A11F3230A128A110C3025
:1003E8000A128A11F3230A128A115730831203134F
:1003F800A400A40BFD290000080083120313A50024
:1004080025080F39A1002108A3002508F039A1000B
:100418002108A40088142408A10004300310A10CAA
:10042800FF3E031D122A21080A128A11D3230A1239
:100438008A11831203130814413083120313A20094
:10044800ED30A100A10B262AA20B262A2B2A831203
:1004580003130810413083120313A200ED30A100EA
:10046800A10B342AA20B342A392A83120313230836
:100478000A128A11D3230A128A1183120313081449
:10048800413083120313A200ED30A100A10B4A2AC8
:10049800A20B4A2A4F2A83120313081041308312F1
:1004A8000313A200ED30A100A10B582AA20B582A71
:1004B8005D2A080083120313A7002703031D652A7A
:1004C800662A8A2A24087F3EA5002508AA002A0849
:1004D800A50004300310A50CFF3E031D6E2A250855
:1004E800A6002608A9002A080F39A5002508A80093
:1004F80029080A128A11F3230A128A118312031394
:1005080028080A128A11F3230A128A110230831268
:1005180003132706031D912A922AB62A2408BF3EF0
:10052800A5002508AA002A08A50004300310A50C78
:10053800FF3E031D9A2A2508A6002608A9002A08B6
:100548000F39A5002508A80029080A128A11F323E3
:100558000A128A118312031328080A128A11F32334
:100568000A128A110800F601F31FBB2ABC2AC32A03
:10057800F209F309F20A0319F30AF601F60AF11F60
:10058800C62AC72ACC2AF009F109F00A0319F10A88
:10059800700871040319D12AD22A012BF501F50A32
:1005A800E02A01300310F00DF10DFF3E031DD62A9D
:1005B8000130F4007408F507F11FE32AE42AD52A6C
:1005C80071087302031DEA2A70087202031CED2ADF
:1005D800EE2AF42A7008F2027108031CF303F302EE
:1005E80001300310F10CF00CFF3E031DF52A013019
:1005F800F502031D002B012BE42A76080319052BAD
:10060800062B0B2BF209F309F20A0319F30A7308F4
:10061800F1007208F000080083120313AB01AC016B
:10062800392B2B082607A9002708A8000318A80AB1
:10063800AB1F1F2BA803831203132808AA002A083C
:10064800FF00290884000A128A1156230A128A1107
:100658000A128A1101220A128A1101308312031325
:10066800AB070318AC0A0030AC072B082607A90013
:100678002708A8000318A80AAB1F432BA803831256
:1006880003132808AA002A08FF00290884000A1270
:100698008A1156230A128A11003A031D542B552B2E
:1006A800152B0800FF1B602B83137F188317000886
:1006B800840A0319FF0A080003308A000408840A20
:1006C800820700344C3479342D345434683461341E
:1006D8006E3468342D3454346F3461346E340034DD
:1006E8004734413453342034443445345434453445
:1006F8004334543445344434003447344134533457
:100708002034533445344E3453344F345234003447
:100718004E344F3420344734413453340034253474
:1007280030342E34323466340034831203138C1E72
:100738009E2B9F2BD22B1A08F7007C08303E840092
:100748007708831380000A30F0000030F1007C083D
:10075800013EF200003003180130F3000A128A113A
:10076800B7220A128A117008F7007708FC000A30CD
:10077800F0000030F1007B08013EF2000030031861
:100788000130F3000A128A11B7220A128A1170087E
:10079800F7007708FB00831203138C1208008312FA
:1007A8000313A000201CD92BDA2BDC2B0816DD2B19
:1007B8000812A01CE02BE12BE32B8816E42B8812EF
:1007C800201DE72BE82BEA2B0817EB2B0813A01D9D
:1007D800EE2BEF2BF12B8817F22B881308008312CE
:1007E8000313A300881023080A128A11D3230A12BC
:1007F8008A11831203130814413083120313A200D1
:10080800ED30A100A10B062CA20B062C0B2C831299
:100818000313081008000A128A1199230A128A1170
:100828007A088A0079088400780E8300FE0E7E0E0E
:10083800090000300A128A11F3230A128A110130C2
:0C0848000A128A11F3230A128A11080018
:02400E007A3FF7
:00000001FF
